:020000040800F2
:1000000048BD0724B1020008F97C0008E779000820
:10001000A17C0008350800083590000800000000A9
:10002000000000000000000000000000C97F000880
:10003000D10D000800000000FD7C0008CB7F000807
:10004000D7020008D7020008D7020008D70200082C
:10005000D7020008D7020008D7020008D70200081C
:10006000D7020008D7020008D7020008D70200080C
:10007000D7020008D7020008D7020008D7020008FC
:10008000D7020008D7020008D7020008D7020008EC
:10009000D7020008D7020008D7020008D7020008DC
:1000A000D7020008D7020008D7020008D7020008CC
:1000B000D7020008D7020008D7020008D7020008BC
:1000C000D7020008D7020008D7020008D7020008AC
:1000D000D702000825900008D7020008D7020008C0
:1000E000D7020008D702000800000000D70200086D
:1000F000D7020008D7020008D70200083908000814
:10010000D7020008D7020008D7020008D70200086B
:10011000D7020008D7020008D7020008D70200085B
:10012000D7020008D7020008D7020008D70200084B
:10013000D7020008D7020008D7020008D70200083B
:1001400000000000000000000000000000000000AF
:10015000D7020008D7020008D7020008D70200081B
:10016000D7020008D7020008D7020008D70200080B
:10017000D7020008D7020008D702000800000000DC
:10018000D7020008D7020008D7020008D7020008EB
:10019000D7020008D7020008D7020008D7020008DB
:1001A000D7020008D7020008D7020008D7020008CB
:1001B000D7020008D7020008D7020008D7020008BB
:1001C000D7020008D7020008D7020008D7020008AB
:1001D000D7020008D7020008D7020008D70200089B
:1001E000D7020008D7020008D7020008D70200088B
:1001F000D7020008D7020008D7020008D70200087B
:10020000D7020008D7020008D7020008D70200086A
:10021000D7020008D7020008D7020008D70200085A
:10022000D7020008D7020008D7020008000000002B
:10023000D7020008D702000800000000D70200081B
:10024000D7020008D7020008D7020008D70200082A
:10025000D7020008D7020008D7020008D70200081A
:10026000D7020008D7020008D7020008D70200080A
:10027000D7020008D7020008D702000800000000DB
:10028000D7020008D7020008D702000800000000CB
:1002900000000000D7020008DFF810D000F0CCF812
:1002A00000480047AD180108AFF3008048BD07249F
:1002B000DFF82400016841F47001016007488047BD
:1002C00007480047FEE7FEE7FEE7FEE7FEE7FEE73A
:1002D000FEE7FEE7FEE7FEE788ED00E0D57F0008D9
:1002E000990200082DE9F05F0546002092469B46E2
:1002F00088460646814640241BE02846414647463C
:10030000224600F088F853465A46C01A914110D34D
:1003100011461846224600F06FF82D1A67EB0108C7
:100320004F4622460120002100F066F817EB000935
:100330004E41201EA4F10104DFDC484631462A4626
:100340004346BDE8F09F00000649074A086850434D
:1003500043F23902104408604008704701490860C0
:1003600070470000580100246D4EC64110B5431A75
:10037000934209D28318881803E010F8011D03F88E
:10038000011D521EF9D210BD40EA01039B0703D0A4
:1003900009E008C9121F08C0042AFAD203E011F8C4
:1003A000013B00F8013B521EF9D210BDD2B201E070
:1003B00000F8012B491EFBD270470022F6E710B56A
:1003C00013460A4604461946FFF7F0FF204610BDC3
:1003D000421C10F8011B0029FBD1801A704730B570
:1003E00004460020034600E05B1C934203D2E05C1D
:1003F000CD5C401BF8D030BD202A04DB203A00FA47
:1004000002F1002070479140C2F1200320FA03F36B
:10041000194390407047202A04DB203A21FA02F069
:100420000021704721FA02F3D040C2F1200291402E
:100430000843194670470000064C074D06E0E06887
:1004400040F0010394E8070098471034AC42F6D31B
:10045000FFF726FFDCDD0108FCDD010870B58C1814
:1004600010F8015B15F0070301D110F8013B2A11C8
:1004700006D110F8012B03E010F8016B01F8016BB5
:100480005B1EF9D12B0705D40023521E0DD401F8B1
:10049000013BFAE710F8013BCB1A921C03E013F87A
:1004A000015B01F8015B521EF9D5A142D8D30020AF
:1004B00070BD000070B504464E492068884203D0E4
:1004C0004D492068884208D14C48006800F440300B
:1004D00008B1012009E0002007E04948006800F465
:1004E000403008B1012000E00020B8B106F00CF85F
:1004F00005466068B0F5803F06D0B0F5003F04D0F7
:10050000B0F5403F08D105E000BF6068000CB5FBC6
:10051000F0F502E0AD0800E000BF2AE04FF4002053
:1005200004F006FD05466068C0F31101F9B98014B6
:100530000C281CD2DFE800F01B060708090A0B1183
:100540001315171900BF00BF00BF00BF00BF6068D0
:10055000800C4000B5FBF0F50AE02D0908E06D09BC
:1005600006E0AD0904E0ED0902E02D0A00E000BF5D
:1005700000BF03F047FE41F20301884210D8214832
:10058000854206D92068806840F4807021688860C0
:100590002FE02068806820F480702168886028E05F
:1005A0006D081948854206D82068806820F440709C
:1005B000216888601DE01548854208D82068806859
:1005C00020F4407040F480702168886011E0104889
:1005D000854208D82068806820F4407040F400709C
:1005E0002168886005E02068806840F440702168D8
:1005F000886070BD002002400021024008230240B4
:1006000008630258002D3101105E5F0020BCBE005F
:1006100040787D0170B50546AC6B606D00F0500010
:1006200098BB606D40F4007060652068006800F061
:100630000800A8B1206807F0FFF910B32068C0686F
:1006400000F40050E8B9606D20F480706065606D62
:1006500000F48050A8B9606D40F00100606510E0C2
:100660002068C06800F0030058B9606D20F4807005
:100670006065606D00F4805018B9606D40F0010055
:100680006065204601F01AFC0CE0FFE7606D00F0A9
:10069000100018B1204601F013FC03E0E06CC16CBF
:1006A0002846884770BD70B50546AC6B606D40F05C
:1006B00040006065A06D40F00400A065204601F098
:1006C000FFFB70BD70B50446A56B284601F0F7FB33
:1006D00070BD000070B50446206807F099F9064621
:1006E000206807F09AF998B396BB2068806800F0FC
:1006F0000D0001280AD1206881681A4A1140891C1E
:10070000816000BF03202168086009E0606D40F04F
:1007100010006065A06D40F00100A065012070BD73
:1007200003F076FD054614E003F072FD401B02283D
:100730000FD92068806800F0010050B1606D40F072
:1007400010006065A06D40F00100A0650120E6E7A3
:1007500005E02068806800F001000028E4D1002056
:10076000DDE70000C0FFFF7F70B50446206807F09A
:1007700054F9002851D1206880682949084048B1BF
:10078000606D40F010006065A06D40F00100A06554
:10079000012070BD206807F029F903F039FD0546F6
:1007A000204A2168914203D01F4A2168914201D119
:1007B0001E4900E01E49084607F020F906461A497E
:1007C0002068884201D1174800E0206821688842EB
:1007D00000D00EBB1AE0206807F01FF910B920689E
:1007E00007F004F903F014FD401B02280ED920681D
:1007F000006800F0010048B9606D40F010006065CD
:10080000A06D40F00100A0650120C2E720680068EB
:1008100000F001000028DED000BF0020B9E7000092
:100820003F000080002002400021024000230240DF
:100830000063025800BFFEE70848406800F000600F
:1008400050B101200649087000BF0448C06840F05C
:1008500000600249C86000BF70470000000002400D
:100860003E0000240146374A0868904249D0354A84
:1008700018320868904244D0324A303208689042B8
:100880003FD0304A4832086890423AD02D4A603210
:100890000868904235D02B4A78320868904230D0B0
:1008A000284A9032086890422BD0264AA83208681D
:1008B000904226D0244A0868904222D0224A183218
:1008C000086890421DD0204A30320868904218D003
:1008D0001D4A48320868904213D01B4A60320868AB
:1008E00090420ED0184A78320868904209D0164AD1
:1008F00090320868904204D0134AA83208689042A7
:1009000001D1012000E00020B0B10A78103A18238C
:10091000B2FBF3F000F007020C4B9A5CCA650328A7
:1009200005D90A686FF30902121D8A6503E00A6897
:100930006FF309028A6503E0086820F0FF0088650C
:10094000886D7047100002401004024008AB010897
:1009500010B502682B4C0368A34222D0294C1434F2
:100960000368A3421DD0274C28340368A34218D043
:10097000244C3C340368A34213D0224C5034036807
:10098000A3420ED01F4C64340368A34209D01D4C0F
:1009900078340368A34204D01A4C8C340368A34211
:1009A00001D1012300E000238BB10378083B14241C
:1009B000B3FBF4F1144B03EB81030366124B80335A
:1009C000436601F01F040123A340836618E0037807
:1009D000103B1824B3FBF4F10C4B9A4204D80B4B98
:1009E000A83B9A4200D30831094B03EB810303660D
:1009F000074B8033436601F01F040123A340836645
:100A000010BD00000854025800580258B8040240B3
:100A1000000802400179A9B3082940D8204B026898
:100A20009A4222D01E4B143302689A421DD01C4BAE
:100A3000283302689A4218D0194B3C3302689A4214
:100A400013D0174B503302689A420ED0144B6433C4
:100A500002689A4209D0124B783302689A4204D055
:100A60000F4B8C3302689A4201D1012200E0002230
:100A70004AB14A1E0B4B03EB8202C266094A40325E
:100A8000026708E00BE04A1E074B03EB8202C266D6
:100A9000054A403202674A1E01239340436770476C
:100AA000085402580059025800090240014600202B
:100AB0008A69D2B98A6A32B1012A0DD0022A03D0DA
:100AC000032A10D10EE000BFCA6A02F08072B2F1B0
:100AD000807F00D1012007E0CA6AB2F1C07F00D157
:100AE000012001E000E000BF36E08A69B2F5005F56
:100AF0001BD18A6A32B1012A07D0022A03D0032A05
:100B000011D10AE000BF01200EE0CA6A02F0807233
:100B1000B2F1807F00D1012006E0CA6AB2F1C07F45
:100B200000D1012000E000BF16E08A6A32B1012A3C
:100B300005D0022A04D0032A0CD103E000BF00BF75
:100B4000012008E0CA6A02F08072B2F1807F00D111
:100B5000012000E000BF00BF70470000F0B5856DC8
:100B6000846D984F0668BE4270D0964F183706685D
:100B7000BE426BD0934F30370668BE4266D0914F6D
:100B800048370668BE4261D08E4F60370668BE4265
:100B90005CD08C4F78370668BE4257D0894F90376B
:100BA0000668BE4252D0874FA8370668BE424DD075
:100BB000854F0668BE4249D0834F18370668BE424B
:100BC00044D0814F30370668BE423FD07E4F483711
:100BD0000668BE423AD07C4F60370668BE4235D0C8
:100BE000794F78370668BE4230D0774F9037066825
:100BF000BE422BD0744FA8370668BE4226D0734F32
:100C00000668BE4222D0714F14370668BE421DD01E
:100C10006E4F28370668BE4218D06C4F3C370668C6
:100C2000BE4213D0694F50370668BE420ED0674FA0
:100C300064370668BE4209D0644F78370668BE4202
:100C400004D0624F8C370668BE4201D1012600E015
:100C500000263EB1D0E919767E60C66E16B1D0E9A5
:100C60001C767E60574F0668BE4249D0554F1837F4
:100C70000668BE4244D0534F30370668BE423FD06C
:100C8000504F48370668BE423AD04E4F603706682C
:100C9000BE4235D04B4F78370668BE4230D0494F00
:100CA00090370668BE422BD0464FA8370668BE4232
:100CB00026D0454F0668BE4222D0434F18370668FB
:100CC000BE421DD0404F30370668BE4218D03E4F5E
:100CD00048370668BE4213D03B4F60370668BE42B5
:100CE0000ED0394F78370668BE4209D0364F90375C
:100CF0000668BE4204D0344FA8370668BE4201D110
:100D0000012600E00026DEB190F85C6006F01F07C7
:100D10003F26BE40AE600668366826F48026076827
:100D20003E60066873608668402E04D10668B26033
:100D30000668F16044E00668B1600668F2603FE072
:100D4000224F0668BE4222D0204F14370668BE42AA
:100D50001DD01E4F28370668BE4218D01B4F3C37A7
:100D60000668BE4213D0194F50370668BE420ED0F7
:100D7000164F64370668BE4209D0144F78370668AC
:100D8000BE4204D0114F8C370668BE4201D1012605
:100D900000E00026A6B190F85C6006F01F0701266F
:100DA000BE406660066873608668402E04D106689F
:100DB000B2600668F16003E00668B1600668F26040
:100DC000F0BD000010000240100402400854025818
:100DD000704710B5002210E002EB4204036903EBF8
:100DE000C40100230B604B608B60CB600B614B61D7
:100DF00000F1440343F82210521C042AECD30024CF
:100E000044658465C465446604660324036803F589
:100E10008053C3F83041036803F580530469C3F875
:100E20001C4103694833046804F58054C4F8283130
:100E300010BD10B500220EE002EB4204C36803EBC4
:100E4000C40100230B604B608B60CB6000F1180382
:100E500043F82210521C042AEED300248462032497
:100E6000036803F58053C3F82C41036803F58053EE
:100E7000C468C3F81441036803F58053C468C3F819
:100E8000204110BD10B5A2B0044601208DF83300FA
:100E9000002012908DF841008DF8430001208DF85C
:100EA00028008DF856008DF8320000208DF84C0097
:100EB00001208DF8840040030F9000208DF85C0025
:100EC00018908DF885008DF886004FF4C360169059
:100ED00000208DF830000B9001208DF835000020A7
:100EE0008DF836008DF840001D901B9014908DF801
:100EF00064008DF87A0001208DF8420020202090B7
:100F000001208DF8440000208DF855004FF040502E
:100F100009904FF480400E9000208DF8310002209F
:100F20001F9000208DF878008DF879008DF854001E
:100F300001208DF8340000201A9001208DF87000F7
:100F400009A9204600F0AEFA01208DF804000290B5
:100F5000002000908DF81C008DF80D008DF80C001D
:100F60004FF40010069000208DF814004FF400108C
:100F7000049000208DF81D004FF40670089069461B
:100F8000204600F031FA22B010BD000070B50646D0
:100F90003068D0F8004224F4706405F0B5FA0546D4
:100FA0001348854205D31348854202D244F40074A5
:100FB0001AE01048854205D30F48854202D244F416
:100FC000407411E00C48854203D30C48854200D29E
:100FD0000AE00A48854205D30948854202D244F412
:100FE000807401E044F480643068C0F8004270BD51
:100FF000002D3101C00E16020087930300E1F505B4
:1010000080D1F0080020704710B503F001F910BD41
:1010100010B5024802F0AAFE002010BD740400249E
:1010200070B504460D46164633462A462146044806
:1010300002F04EFE10B14FF0FF3070BD0020FCE713
:101040007404002470B504460D46164633462A46FD
:101050002146044802F076FF10B14FF0FF3070BD1A
:101060000020FCE7740400242DE9F04F06460B46EF
:10107000914606F118042269D4F810C0002754F8EC
:1010800022109D68BA46C86800F00040B0F1004FD9
:1010900004D004F1140050F8220010B10220BDE881
:1010A000F08F187800F00400C8B3C8686FF30F0021
:1010B000D3F824B040EA0B00C860C86840F4803020
:1010C000C8603068006E40F48010D6F800B0CBF8ED
:1010D0006000187800F0080008B3B3F82CB08868F6
:1010E0006BF31F408860C86840F40030C860C8686F
:1010F00020F44020D3F830B040EA0B00C8603068DC
:10110000406E40F48010D6F800B0CBF86400306830
:10111000006D40F08060D6F800B0CBF85000187831
:1011200000F0100058B188686FF30D00D3F818B0C4
:1011300040EA0B008860C86840F08060C86018789A
:1011400000F0040018B9187800F01000F0B1C86879
:1011500040F08040C860C86840F00040C86000BFF0
:10116000521C042A00D3121F00BF54F822107F1C07
:10117000C86800F00040B0F1004F07D154F82C10BF
:10118000C86820F00040C860022088E77F1C2868FB
:10119000086088686FF30D00D5F804B040EA0B00D2
:1011A0008860A86868B1AD68286848608868DFF81A
:1011B00034B200EA0B00B5F804B040EA0B40886096
:1011C00007E0002048608868DFF818B200EA0B00EA
:1011D0008860187800F01000A0B1C86820F4F00012
:1011E000B3F820B040EACB40C860C8686FF3110084
:1011F000D3F81CB040EA0B00C860C86840F48020F7
:10120000C8601FE0C8686FF30E00D3F804B040EA6E
:101210000B00C860187800F0010038B1C86820F4ED
:101220004030D3F814B040EA0B00C860187800F0E2
:10123000200038B1C86820F04060D3F810B040EA10
:101240000B00C860187800F0040038B1886820F4FA
:101250004040D3F828B040EA0B008860C86840F0EE
:101260000050C860C86820F08040C860C86840F07E
:101270000040C860187800F0020038B1C86820F05B
:101280006070D3F80CB040EA0B00C86085E0C86815
:1012900020F08050C86000BF521C042A00D3121FE7
:1012A00000BF54F82210C86820F00050C860C86819
:1012B00000F00040B0F1004F04D004F1140050F8E9
:1012C0002200B8B1624654F822104FF000080DE039
:1012D000C86820F00040C86000BF521C042A00D338
:1012E000121F00BF54F8221008F10108B845EFD3CF
:1012F0000220D4E67F1CAD682868086088686FF318
:101300000D00D5F804B040EA0B008860A86868B109
:10131000AD68286848608868DFF8C8B000EA0B004C
:10132000B5F804B040EA0B40886007E00020486050
:101330008868DFF8B0B000EA0B008860187800F029
:10134000100060B1C8686FF31100D3F81CB040EA18
:101350000B00C860C86840F48020C86013E0C8680B
:101360006FF30E00D3F804B040EA0B00C8601878A1
:1013700000F0010038B1C86820F44030D3F814B050
:1013800040EA0B00C8600AF1010AC86840F000405A
:10139000C860C86820F08040C860A86800287FF452
:1013A00076AFB9F1000F04D0886840F00040886043
:1013B00003E0886820F000408860C86840F08050F2
:1013C000C86004F11400D4F824B040F822B02261BF
:1013D00072B60AF10100D4F828B05844A06262B68F
:1013E00000205CE6FFFF00C010B5036803F58053E2
:1013F0001B6847F60204A3430C682343046804F502
:10140000805423600C798B6843EA04330C7B43EAF5
:10141000C432036803F580535B684DF20104A343B3
:101420001343046804F5805463604C7B0B6A43EA01
:101430000442036803F58053D3F80031164C23406F
:101440001343046804F58054C4F800310C7D0B6923
:1014500043EA04134C7F43EA0432036803F58053E4
:10146000D3F804310D4C23401343046804F5805431
:10147000C4F804310C7F8B6943EAC472036803F536
:101480008053D3F80831064C23401343046804F515
:101490008054C4F8083110BD00C0FEFFEFEFC0FF5C
:1014A000FFFFC07F10B50C688B6823430C7943EABB
:1014B000C4630C7B43EAC4534C7B43EA84538C7B68
:1014C00043EA4453CC7B43EA04530C7C0CB901241B
:1014D00000E0002443EAC4434C7C0CB9012400E042
:1014E000002443EA44438C7C43EA04434C6923438D
:1014F0008C6923430C7F43EA04334C7F43EAC423C3
:101500008C7F0CB9012400E0002443EA8423CC7FC3
:1015100043EA442391F820400CB9012400E0002460
:1015200043EA042351F8244F23430C7943EA04137C
:101530008C6843EA040203681B683D4C2340134354
:10154000046823600B7E5B060C7D43EA04630C7B1E
:1015500043EA84434C7B43EA44438C7B24390CB9F3
:10156000012400E0002443EA04434C6B43EA0402F4
:1015700003685B682F4C234013430468636091F851
:1015800040404B6C43EA04220368DB6840F20F14CE
:10159000A34313430468E36091F854400B6D43EA9E
:1015A000440391F84C400CB9012400E0002443EAC4
:1015B000C41331F8484F43EA044203681B6F4FF6E7
:1015C0000D7423401343046823678B7B4C7B43EAF1
:1015D00044020368D3F8903023F0030313430468F4
:1015E000C4F890300368D3F8003D23F072030C690F
:1015F00023430468C4F8003D0C7E4B6948390CB99C
:10160000012400E0002443EA841391F8614043EA96
:10161000041391F8624043EAC4020368D3F8303DF2
:1016200023F07B0313430468C4F8303D10BD000071
:10163000838004000080F8C070B50446B3F5804F85
:1016400013D1D1E9000540EA05108D6840EA052074
:101650008D6928438D8940EA054054F82250064E92
:101660003540284344F8220003E06FF0704044F80E
:101670002200002070BD00000000F0CF70B50246CF
:10168000086852F8200020F001000E6842F8260099
:101690008868082801D1402500E0002548682843D3
:1016A0008E683043CE6830430E6930434E69304314
:1016B0008E693043CE6930430E6A30434E6A304300
:1016C0008E6A3043CE6A40EA0603086B0343486BD8
:1016D0000343886B0343114C44F4801444F4001416
:1016E00044F4E024086852F82000A04318430E6830
:1016F00042F82600086BB0F5801F07D1086828B1B2
:10170000106820F480100E6B30431060086818B128
:1017100010684E6B30431060002070BD7FFB0800E6
:1017200030B50346D1E9000540EA05108D6840EA6E
:1017300005208D8940EA0545088A401E45EA005586
:10174000087D801E45EA00608D692843551C53F8CA
:10175000255005F040452843551C43F825001868DE
:1017600000F48010B0F5801F0BD1586820F470048D
:10177000088A401E44EA0054586820F47000204350
:101780005860002030BD02460868B0B9D1E90103B5
:101790001843CB6818430B6918434B6918438B698E
:1017A0001843CB6918430B6A18434B6A18431368F4
:1017B0006FF30E031843106019E0D1E907031843D3
:1017C0004B6A1843136823F4F84318431060D1E9B7
:1017D00001031843CB6818430B6918434B6918433E
:1017E0008B69184353686FF30E0318435060002051
:1017F00070470246506943F6FE73984340EA410041
:1018000050610020704710B50346D1E90004204321
:101810008C68641E40EA4410CC6840EA44201C698D
:101820006FF3150420431861002010BD30B5034646
:10183000FAB90868401E4C68641E40EA04148868BF
:10184000401E44EA0024C868401E44EA0034088A66
:10185000401E44EA0044888A401E44EA0054087E40
:10186000401E44EA00609C6804F070442043986085
:1018700022E0C868401E0403888A401E44EA0050E3
:101880009C680E4D2C40204398600868401E4C68B0
:10189000641E40EA04148868401E44EA0024088A52
:1018A000401E44EA0044087E401E44EA0060DC68B2
:1018B00004F070442043D860002030BDFF0F0FFFBC
:1018C000F8B504460D4616460020009000BF94F877
:1018D0005000012801D10220F8BD012084F85000F9
:1018E00000BF2046FEF7F6FE0746A7BB606D20F45A
:1018F000885040F002006065206805F4803141F0B6
:10190000004106F0804211438268194B1A4011438E
:10191000816000BF13E00098401C009015490098BA
:1019200088420CD3606D20F0020040F0100060652A
:1019300000BF002084F8500000BF0120CCE72068E1
:101940008168C90F0029E6D1606D20F0020040F0E7
:101950000100606504E0FFE7606D40F01000606525
:1019600000BF002084F8500000BF3846B4E70000F4
:10197000C0FFFE3F00F8C3252DE9F84F04460D4691
:101980004FF0000A0020009094F83800012800D1A0
:1019900000E000BFF849E868884200D00EE0F7494F
:1019A0002068884200D100BFF5492068884200D1F4
:1019B00000BFF4492068884200D100BF00BF94F8FE
:1019C0005000012802D10220BDE8F88F012084F8E0
:1019D000500000BF206806F02AF800287ED1206859
:1019E000C1692868C0F3130018B92868C0F384607F
:1019F00004E0286890FAA0F0B0FA80F000F01F022E
:101A00000120904001432068C1612168D5E9002090
:101A100001F1300CC0F3012B0CEB8B03D3F800C0A9
:101A200000F01F0E4FF01F0B0BFA0EFB2CEA0B0CF5
:101A300000F01F0BC2F3846E0EFA0BFE4CEA0E0C84
:101A4000C3F800C000BF206805F0F1FF81462068A0
:101A500005F0D9FF8046B9F1000F6FD1B8F1000F42
:101A6000FBD1AA682968206805F0F8FFC64800681D
:101A700000F07040B0F1805F07D168692168C968E3
:101A8000C1F382014900884014E02068C06800F07A
:101A9000100038B968692168C968C1F3820149003A
:101AA000884007E068692168C96801F01001890869
:101AB0004900884007462869042840D020682A68E1
:101AC000296900F1600C0CEB8103D3F800C00CF025
:101AD000004C02F0F84B4BEA070B00E0CCE14CEA7B
:101AE0000B0CC3F800C000BF20686A7E2969012A78
:101AF00001D1D20700E00022134600F1600C0CEB8C
:101B00008102D2F800C02CF0004C4CEA030CC2F861
:101B100000C000BF20682B7E2969012B01D1DB02A8
:101B200000E000231A46036923F4F04301F01F0C80
:101B300002FA0CFC43EA0C03036100BF37E02068A3
:101B4000006E00F0F8402978B0EB816F05D1206875
:101B5000006E20F00040216808662068406E00F0AA
:101B6000F8402978B0EB816F05D12068406E20F0F5
:101B70000040216848662068806E00F0F8402978AF
:101B8000B0EB816F05D12068806E20F000402168A5
:101B900088662068C06E00F0F8402978B0EB816F4D
:101BA00005D12068C06E20F000402168C86620681A
:101BB00005F033FF002872D12068EA682968D0F860
:101BC000C030C1F3130C23EA0C0302F0180BDFF84A
:101BD000BCC12CFA0BFC0CEA010C43EA0C03C0F864
:101BE000C03000BF6449E86888427DD12B68C3F3E8
:101BF00013031BB92B68C3F3846304E02B6893FAC7
:101C0000A3F3B3FA83F35B1C03F01F03092B3ED845
:101C10002B68C3F313031BB92B68C3F3846304E07D
:101C20002B6893FAA3F3B3FA83F35B1C03F01F034F
:101C30004FF0010C0CFA03FC2B68C3F313031BB920
:101C40002B68C3F3846304E02B6893FAA3F3B3FA1D
:101C500083F35B1C03F01F034CEA836C2B68C3F314
:101C600013031BB92B68C3F3846304E02B6893FA56
:101C7000A3F3B3FA83F35B1C03F01F0303EB4303EB
:101C80004FF0000B4BEA03534CEA030341E02B688F
:101C9000C3F3130323B92B68C3F3846305E0A9E0FE
:101CA0002B6893FAA3F3B3FA83F35B1C03F01F03CF
:101CB0004FF0010C0CFA03FC2B68C3F313031BB9A0
:101CC0002B68C3F3846304E02B6893FAA3F3B3FA9D
:101CD00083F35B1C03F01F034CEA836C2B68C3F394
:101CE00013032BB92B6800E018E0C3F3846304E00E
:101CF0002B6893FAA3F3B3FA83F35B1C03F01F037F
:101D00000A3B03EB43034FF0007B4BEA03534CEADF
:101D100003031946AA68206805F0A0FE286800F0B1
:101D20000040002866D0154A2168914203D0144A29
:101D30002168914201D1164900E0164908468168A0
:101D400001F0E07600BF0D492068884203D00C49BD
:101D50002068884201D10E4800E00E480C498842B4
:101D60001AD1064805F059FE8346054805F055FE90
:101D70004BEA000013E000000000FF470020024093
:101D800000210240006002580010005CFFFF0F00BD
:101D900000230240006302583E4805F03EFEE8BBC7
:101DA0003D492868884226D106F4000018BB39490D
:101DB0002068884266D1394B22689A4203D0384B5A
:101DC00022689A4201D1374A00E0374A104646F469
:101DD000000105F057FE354800683549B0FBF1F0C9
:101DE000401C4000009002E00098401E00900098C7
:101DF0000028F9D146E02F492868884219D106F019
:101E00008070B0B92349206888423BD1234B2268B7
:101E10009A4205D0224B22689A4200E025E001D187
:101E2000204A00E0204A104646F0807105F02AFE64
:101E300028E021492868884224D106F4800008BBA4
:101E40001449206888421DD1144B22689A4203D05D
:101E5000134B22689A4201D1124A00E0124A1046FE
:101E600046F4800105F00EFE0CE0606D40F02000AD
:101E700060654FF0010A05E0606D40F0200060658C
:101E80004FF0010A00BF002084F8500000BF504608
:101E90009AE5000000600258000084CB0020024058
:101EA0000021024000230240006302580000002489
:101EB000400D0300000052C70000B8CF70477047C4
:101EC000704700002DE9F84F04464FF0000900204C
:101ED000009014B90120BDE8F88FE06818B1207FA8
:101EE000012800D100BF606D30B9204600F030F904
:101EF0000020A06584F8500020688168C1F340711B
:101F000031B120688168874A1140816000BF00BFFD
:101F1000206805F087FDA8B920688168824A1140D1
:101F200041F08051816000BF804800688049B0FB6B
:101F3000F1F0401C009002E00098401E00900098D4
:101F40000028F9D1206805F06DFD48B9606D40F0BA
:101F500010006065A06D40F00100A0654FF0010920
:101F6000206805F064FD0646606D00F01000002852
:101F70007ED1002EFCD1606D20F4807040F0020014
:101F80006065206805F049FD78BB6A492068884291
:101F900003D069492068884201D1684800E0684858
:101FA0006649884209D1634805F037FD8246624898
:101FB00005F033FD4AEA000002E0624805F02DFD1D
:101FC00098B95C4B22689A4203D05B4B22689A42D4
:101FD00001D15A4A00E05A4A10466168826822F4E8
:101FE0007C120A43826000BF00BF02F00BF941F28D
:101FF000030188420ED9A06810280BD1607D216BA7
:1020000041EA4030A168084340F00C01207F41EADA
:10201000004508E0607D216B41EA4030A16808433B
:10202000217F40EA0145207F012803D1208C401EFA
:1020300045EA4045606A28B1A08C00F47870A16A36
:10204000084305432068C0683F4908402843216889
:10205000C860206805F0EBFC8046206805F0D3FCE2
:102060000746B8F1000F3BD1D7BB207DE16A00E005
:1020700050E041EA80352068C06844F2030188439B
:1020800028432168C86094F83800012817D1606A95
:1020900008B1A06A00B900BFA08F401E012141EA2B
:1020A0000041206C0843616C0843A16C084321681F
:1020B0000969264A114008432168086105E0206843
:1020C000006920F00100216808612068006920F0A3
:1020D0007040616B0843216808612046FEF7EAF909
:1020E000E068012809D12068006B20F00F00A16989
:1020F000491E08432168086305E02068006B20F052
:102100000F0021680863606D20F0020040F00100BC
:10211000606505E0606D40F0100060654FF00109FA
:102120004846D8E6C0FFFF5FC0FFFF7F00000024E5
:10213000400D030000200240002102400023024025
:10214000006302580060025803C0F0FF1EF800FC54
:1021500010B586B004461E492068884236D100BFBB
:1021600000BF1C48006840F020001A49086008467B
:10217000006800F02000009000BF00BF00BF00BF5B
:1021800000BF14480830006840F0010011490831D0
:1021900008600846006800F00100009000BF00BF22
:1021A00000BF0C488038006820F4403040F4003014
:1021B0000849803908602020019003200290002007
:1021C000039001A9044801F007FF00BF06B010BD4D
:1021D00000200240D8440258000002582DE9F04186
:1021E00004460F469046434A2168914203D0424A32
:1021F0002168914201D1414900E04149084605F07A
:10220000FDFB0646206805F012FC00286ED100BFD9
:1022100094F85000012802D10220BDE8F08101208D
:1022200084F8500000BF1EB1052E01D0092E57D1F1
:102230002046FEF799FA0546002D4CD1606D40F618
:102240000161884340F4807060652B4920688842B2
:1022500001D1284800E020682168884200D01EB9DA
:10226000606D20F480106065606D00F4805020B1D6
:10227000A06D20F00600A06501E00020A0652148C7
:10228000E16CC8632048E16C08642048E16CC864D4
:102290001C202168086000BF002084F8500000BFA7
:1022A0002068406840F0100021684860E16A2068BA
:1022B000C26822F003020A43C26000BF226802F132
:1022C000400143463A46E06C00F0ECFE05462068CB
:1022D00005F0BCFB0BE000BF002084F8500006E0D6
:1022E000012500BF002084F8500000E002252846A8
:1022F00093E700000020024000210240002302403A
:102300000063025815060008C5060008A706000865
:102310002DE9F041044601F07BFF804614B901200D
:10232000BDE8F08194F83500022808D0802060656F
:1023300000BF002084F8340000BF0120F0E7FE4910
:102340002068884249D0FC4918312068884244D02E
:10235000F9493031206888423FD0F7494831206838
:1023600088423AD0F44960312068884235D0F24939
:1023700078312068884230D0EF4990312068884217
:102380002BD0ED49A8312068884226D0EB4920683F
:10239000884222D0E9491831206888421DD0E74997
:1023A00030312068884218D0E4494831206888429A
:1023B00013D0E2496031206888420ED0DF4978317D
:1023C0002068884209D0DD4990312068884204D0D5
:1023D000DA49A8312068884201D1012000E00020BC
:1023E00068B12068006820F01E002168086020683D
:1023F000406920F0800021684861256806E0206877
:10240000006820F00E00216808602568CA4920682D
:10241000884270D0C8491831206888426BD0C649BC
:1024200030312068884266D0C349483120688842EC
:1024300061D0C1496031206888425CD0BE497831A2
:102440002068884257D0BC4990312068884252D0D9
:10245000B949A831206888424DD0B84920688842DF
:1024600049D0B64918312068884244D0B349303148
:10247000206888423FD0B1494831206888423AD02C
:10248000AE4960312068884235D0AC497831206847
:10249000884230D0A9499031206888422BD0A74982
:1024A000A8312068884226D0A5492068884222D0D9
:1024B000A3491431206888421DD0A14928312068E1
:1024C000884218D09E493C312068884213D09C49EC
:1024D0005031206888420ED0994964312068884282
:1024E00009D0974978312068884204D094498C31CA
:1024F0002068884201D1012000E0002028B1206E30
:10250000006820F48070216E08608B492068884242
:1025100049D0894918312068884244D086493031F1
:10252000206888423FD084494831206888423AD0A8
:10253000814960312068884235D07F4978312068F0
:10254000884230D07C499031206888422BD07A492B
:10255000A8312068884226D078492068884222D055
:1025600076491831206888421DD07449303120687E
:10257000884218D0714948312068884213D06F4989
:102580006031206888420ED06C49783120688842DA
:1025900009D06A4990312068884204D06749A8313F
:1025A0002068884206D12068006820F00100216878
:1025B000086005E02068006820F0010021680860DC
:1025C00011E001F025FEA0EB080005280BD9202022
:1025D0006065032084F8350000BF002084F83400D3
:1025E00000BF01209CE6286800F001000028E8D127
:1025F00051492068884249D04F49183120688842A3
:1026000044D04D493031206888423FD04A49483152
:10261000206888423AD0484960312068884235D0E5
:10262000454978312068884230D04349903120684C
:1026300088422BD04049A8312068884226D03F49A3
:102640002068884222D03D491831206888421DD038
:102650003A4930312068884218D0384948312068DA
:10266000884213D035496031206888420ED0334902
:1026700078312068884209D03049903120688842FA
:1026800004D02E49A8312068884201D1012000E001
:10269000002040B1A66D94F85C0000F01F013F20BF
:1026A0008840B06007E0A76D94F85C0000F01F015F
:1026B00001208840786020492068884276D01E49F1
:1026C00018312068884271D01B4930312068884217
:1026D0006CD0194948312068884267D0164960316A
:1026E0002068884262D014497831206888425DD0E1
:1026F000114990312068884258D00F49A83120688C
:10270000884253D00D49206888424FD00B49183178
:10271000206888424AD0094930312068884245D033
:10272000064948312068884240D004496031206819
:1027300088423BD0014905E01000024010040240ED
:10274000085402587831206888422FD025492068E3
:1027500088422BD0234918312068884226D022494C
:102760002068884222D020491431206888421DD038
:102770001D4928312068884218D01B493C31206807
:10278000884213D018495031206888420ED016492B
:1027900064312068884209D0134978312068884222
:1027A00004D011498C312068884201D1012000E019
:1027B000002068B1D4E919104860E06E40B1E06EC5
:1027C000006820F48070E16E0860D4E91C10486055
:1027D000012084F8350000BF002084F8340000BFD9
:1027E00000BF9DE5A00402400854025870B504469D
:1027F0000CB9012070BD94F83500022803D0802068
:1028000060650120F6E7DC492068884249D0DA4952
:1028100018312068884244D0D74930312068884236
:102820003FD0D5494831206888423AD0D2496031FA
:102830002068884235D0D04978312068884230D02D
:10284000CD499031206888422BD0CB49A8312068EF
:10285000884226D0C9492068884222D0C749183109
:10286000206888421DD0C54930312068884218D080
:10287000C24948312068884213D0C049603120687D
:1028800088420ED0BD4978312068884209D0BB49C2
:1028900090312068884204D0B849A8312068884225
:1028A00001D1012000E00020F0B3042084F83500BD
:1028B000B149206888424BD0AF491831206888421E
:1028C00046D0AD4930312068884241D0AA494831CC
:1028D000206888423CD0A84960312068884237D0BF
:1028E000A54978312068884232D0A34990312068C8
:1028F00088422DD0A049A8312068884228D09F491D
:102900002068884224D09D491831206888421FD011
:102910009A493031206888421AD098494831206855
:10292000884215D0954900E020E060312068884257
:102930000ED0924978312068884209D08F49903171
:102940002068884204D08D49A8312068884206D189
:102950002068006820F001002168086009E1206813
:10296000006820F001002168086002E1206800682A
:1029700020F00E00216808607F492068884249D015
:102980007D4918312068884244D07B493031206825
:1029900088423FD078494831206888423AD0764909
:1029A00060312068884235D0734978312068884288
:1029B00030D071499031206888422BD06E49A831BF
:1029C0002068884226D06D492068884222D06B4911
:1029D0001831206888421DD068493031206888420B
:1029E00018D0664948312068884213D06349603165
:1029F000206888420ED0614978312068884209D029
:102A00005E4990312068884204D05C49A831206832
:102A1000884206D12068006820F001002168086023
:102A200005E02068006820F0010021680860524934
:102A30002068884270D050491831206888426BD095
:102A40004D4930312068884266D04B494831206872
:102A5000884261D048496031206888425CD046494C
:102A600078312068884257D04349903120688842A5
:102A700052D04149A831206888424DD03F49206852
:102A8000884249D03D4918312068884244D03B49AA
:102A90003031206888423FD0384948312068884228
:102AA0003AD0364960312068884235D03349783190
:102AB0002068884230D031499031206888422BD03C
:102AC0002E49A8312068884226D02D4920688842A6
:102AD00022D02B491431206888421DD02849283142
:102AE0002068884218D026493C312068884213D09B
:102AF00023495031206888420ED021496431206832
:102B0000884209D01E4978312068884204D01C4987
:102B10008C312068884201D1012000E00020D8B12A
:102B2000206E006820F48070216E0860A56D94F816
:102B30005C0000F01F01012088406860D4E9191092
:102B40004860E06E40B1E06E006820F48070E16E95
:102B50000860D4E91C104860012084F8350000BFEB
:102B6000002084F8340000BF206D10B12046216D94
:102B7000884700203EE6000010000240100402409A
:102B8000085402582DE9F041044601F041FB80460B
:102B900014B90120BDE8F081FE492068884249D07F
:102BA000FC4918312068884244D0FA493031206805
:102BB00088423FD0F7494831206888423AD0F549E9
:102BC00060312068884235D0F249783120688842E7
:102BD00030D0F0499031206888422BD0ED49A8319F
:102BE0002068884226D0EC492068884222D0EA49F1
:102BF0001831206888421DD0E7493031206888426A
:102C000018D0E54948312068884213D0E249603144
:102C1000206888420ED0E04978312068884209D087
:102C2000DD4990312068884204D0DB49A831206812
:102C3000884201D1012000E00020002873D0606AA2
:102C400000B100BF022084F8350000BF002084F8E6
:102C5000340000BFCF492068884249D0CD4918319F
:102C60002068884244D0CB493031206888423FD028
:102C7000C8494831206888423AD0C6496031206846
:102C8000884235D0C34978312068884230D0C14964
:102C90009031206888422BD0BE49A83120688842F4
:102CA00026D0BD492068884222D0BB49183120680F
:102CB00088421DD0B84930312068884218D0B649C2
:102CC00048312068884213D0B34960312068884277
:102CD0000ED0B14978312068884209D0AE49903190
:102CE0002068884204D0AC49A8312068884206D1C7
:102CF0002068006820F001002168086005E0206875
:102D0000006820F00100216808600DE001F080FA01
:102D1000A0EB0800052807D920206065032084F86F
:102D20003500012036E76AE02068006800F0010005
:102D30000028EBD12068056898480540D4E90201D5
:102D400008432169084361690843A1690843E169AF
:102D50000843216A08430543606A042803D1D4E983
:102D60000B01084305438E4800686FF30F00B0F174
:102D7000005F1DD36068292802D360682E2811D90E
:102D800060683F2802D3606842280BD960684728F2
:102D900002D36068482805D960684F2804D360686A
:102DA000522801D8012000E0002008B145F4801528
:102DB000206805602068456925F00705606A0543BD
:102DC000606A04280DD1A06A0543E06A48B1204634
:102DD000FDF76CFE28B140206065012084F83500C5
:102DE000D8E6206845612046FDF73CFD064694F88C
:102DF0005C0000F01F013F208840B0609EE0694900
:102E00002068884222D067491431206888421DD04A
:102E1000644928312068884218D062493C312068D2
:102E2000884213D05F495031206888420ED05D49F6
:102E300064312068884209D05A4978312068884234
:102E400004D058498C312068884201D1012000E02B
:102E50000020E0B353492068884222D05149143100
:102E6000206888421DD04F4928312068884218D0F8
:102E70004C493C312068884213D04A49503120687F
:102E800088420ED0474964312068884209D04549BC
:102E900078312068884204D042498C3120688842C9
:102EA00001D1012000E0002000B100BF022084F821
:102EB000350000BF002084F8340000BF206805689A
:102EC00039480540A068402802D1102106E02EE0D4
:102ED000A068802801D1C10100E00021E06841EA3A
:102EE000D001206941EAD001606941EAD001A069BE
:102EF00041EAD001E06941EAD001206A41EA1010BC
:102F000005432068056027492068401A1421B0FB5A
:102F1000F1F08000E0652046FDF7A4FC074694F838
:102F20005C0000F01F0101208840786006E040202E
:102F30006065032084F8350001202BE615492068E0
:102F400088427FD013491831206888427AD01149CD
:102F500030312068884275D00E4948312068884257
:102F600070D00C496031206888426BD009497831B3
:102F70002068884266D0074990312068884261D035
:102F80000449A831206888425CD0034920688842FF
:102F900058D00BE010000240100402403F8010FEA9
:102FA0000010005C085402580F00FEFF3B49183126
:102FB0002068884246D0394930312068884241D063
:102FC00036494831206888423CD034496031206815
:102FD000884237D0314978312068884232D02F4931
:102FE0009031206888422DD02C49A8312068884231
:102FF00028D02B492068884224D0294914312068E0
:1030000088421FD026492831206888421AD0244996
:103010003C312068884215D02149503120688842CF
:1030200010D01F496431206888420BD01C49783188
:103030002068884206D01A498C312068884200E016
:1030400000E001D1012000E0002000B32046FDF7A0
:103050007FFCA068802801D1002060602079216E6B
:103060000860D4E919104860606860B16068082899
:1030700009D82046FDF7CEFC0020E16E0860D4E9B7
:103080001C10486003E00020E066206760670020B5
:103090006065012084F8350000207BE510040240C3
:1030A000085402582DE9F04104460D4616461F46C5
:1030B0004FF0000814B90120BDE8F08100BF94F87A
:1030C0003400012801D10220F6E7012084F8340001
:1030D00000BF94F8350001287ED1022084F8350025
:1030E00000206065E4492068884249D0E2491831EF
:1030F0002068884244D0E0493031206888423FD07F
:10310000DD494831206888423AD0DB496031206887
:10311000884235D0D84978312068884230D0D649A5
:103120009031206888422BD0D349A831206888424A
:1031300026D0D2492068884222D0D0491831206850
:1031400088421DD0CD4930312068884218D0CB4903
:1031500048312068884213D0C849603120688842CD
:103160000ED0C64978312068884209D0C3499031D1
:103170002068884204D0C149A8312068884206D11D
:103180002068006820F001002168086005E02068E0
:10319000006820F00100216808603B46324629465D
:1031A0002046FDF7DBFCB449206888424BD0B24989
:1031B00018312068884246D0AF49303120688842B3
:1031C00041D0AD494831206888423CD0AA4960319D
:1031D0002068884237D000E042E1A7497831206872
:1031E000884230D0A4499031206888422BD0A2492F
:1031F000A8312068884226D0A0492068884222D081
:103200009E491831206888421DD09C493031206881
:10321000884218D0994948312068884213D097498C
:103220006031206888420ED0944978312068884205
:1032300009D0924990312068884204D08F49A83142
:103240002068884201D1012000E0002080B1206880
:10325000006820F01E0040F0160021680860206C15
:10326000B0B12068006840F00800216808600FE0F5
:103270002068006820F00E0040F00A002168086015
:10328000206C28B12068006840F0040021680860C4
:1032900079492068884270D077491831206888427F
:1032A0006BD0754930312068884266D07249483108
:1032B0002068884261D070496031206888425CD0C3
:1032C0006D4978312068884257D06B499031206829
:1032D000884252D06849A831206888424DD0674959
:1032E0002068884249D0654918312068884244D016
:1032F00062493031206888423FD0604948312068B7
:1033000088423AD05D4960312068884235D05B49B7
:1033100078312068884230D05849903120688842FE
:103320002BD05649A8312068884226D054492068BD
:10333000884222D052491431206888421DD0504919
:1033400028312068884218D04D493C312068884295
:1033500013D04B495031206888420ED0484964311F
:103360002068884209D0464978312068884204D0D4
:1033700043498C312068884201D1012000E00020BF
:1033800090B1206E006800F4803028B1206E006893
:1033900040F48070216E0860E06E28B1E06E006835
:1033A00040F48070E16E086033492068884249D05B
:1033B000314918312068884244D02F493031206883
:1033C00088423FD02C494831206888423AD02A4967
:1033D00060312068884235D027497831206888429A
:1033E00030D025499031206888422BD02249A8311D
:1033F0002068884226D021492068884222D01F496F
:103400001831206888421DD01C493031206888421C
:1034100018D01A4948312068884213D017496031C2
:10342000206888420ED0154978312068884209D03A
:10343000124990312068884204D01049A831206890
:10344000884206D12068006840F0010021680860C9
:1034500010E02068006840F001002168086009E081
:103460004FF40060606500BF002084F8340000BFA6
:103470004FF0010840461FE61000024010040240D1
:1034800008540258F0B5044604F14402536952F856
:1034900023109669906908B90120F0BDD06900B188
:1034A000761C002522E0086908604FF08070C86033
:1034B000486928B148698860C86840F00070C860F1
:1034C000C86840F00040C860106A18B1C86840F091
:1034D0008040C860701EA84207D900BF5B1C042B47
:1034E00000D31B1F00BF52F823106D1CB542DAD366
:1034F000206800F58050C0F8281100209061002756
:10350000276600BFC9E730B504460D4604F1440004
:1035100050F825100AB1042D02D30120606730BD98
:103520000A600A61C86840F08070C8602BB18B6087
:103530004B61C86840F00070C860C86840F0004047
:10354000C8600020EBE7024609B901207047106807
:10355000006800F00C00C86210680068C0F300103A
:1035600081F828001068006800F060004862106868
:103570000068C0F3002080F0010081F8200010688E
:103580000068C0F34020C87710680068C0F380204E
:1035900080F00100887710680068C0F3C020487789
:1035A00010680068C0F3003008771068006800F405
:1035B000005088611068006800F48040486110681D
:1035C0000068C0F30040887410680068C0F3404091
:1035D00080F00100487410680068C0F3C04080F0BB
:1035E0000100087410680068C0F30050C8731068C8
:1035F0000068C0F34050887310680068C0F38050C2
:10360000487310680068C0F3C05008731068006801
:1036100000F0E060886010680068C0F3C060087166
:103620001068006800F0E040086010684068C0F36F
:103630000D00486310684068C0F3004080F001004E
:1036400081F8320010684068C0F3404081F83100D2
:1036500010684068C0F3804081F83000106840680E
:10366000C0F3006081F8380010684068C0F344601F
:10367000C8631068C068C0F3002081F8400010687B
:10368000C06800F00F0048641068006FC0F340008D
:1036900081F854001068006FC0F3C01080F0010082
:1036A00081F84C001068006F00F070000865106829
:1036B000006F000C88641068D0F8900000F00100E2
:1036C00081F856001068D0F89000C0F3400081F8EF
:1036D00055001068D0F8000D00F072008865106881
:1036E000D0F8300D00F02300C8651068D0F8300D18
:1036F000C0F3C00081F862001068D0F8300DC0F34C
:10370000001081F861001068D0F8300DC0F380100F
:1037100080F0010081F86000002017E72DE9F84FE4
:1037200005468A4605F14407D7F81480002000902A
:1037300057F8286054461CB901206867BDE8F88F27
:10374000B86948B9284600F011F908B90120F5E731
:10375000D7F8148057F828604FF0000B1CE0306950
:10376000206068696060706920B1A4687069206039
:1037700068696060F068C0F30E00009000BF08F157
:103780000108B8F1040F01D3A8F1040800BF57F8ED
:103790002860A4680BF1010BB869401E5845DED8BB
:1037A000F068C0F30E010098A1EB000930692060B9
:1037B0006869484502D3C4F804900DE0706948B1C7
:1037C00068696060A468706920606869A9EB00009E
:1037D000606001E00120B1E70020AFE72DE9F04192
:1037E00080460E4608F144046569A06930B9404638
:1037F00000F0BCF810B90120BDE8F08100BFA0695D
:10380000401E0544042D00D32D1F00BF54F8257021
:10381000F868C0F30E0030600020EDE738B50446CC
:103820000CB9012038BDE06E10B9204600F028F92F
:103830002320E06600BF4B48006840F00200494981
:1038400008600846006800F00200009000BF00BF5A
:10385000207A18B9002003F037FD03E04FF4000090
:1038600003F032FD206800F58050006840F001014F
:10387000206800F58050016000F0CAFC05460BE0AE
:1038800000F0C6FC401BB0F5FA7F05D90420606744
:10389000E020E0660120C5E7206800F58050006860
:1038A00000F001000028EBD12046FDF76FFB02F08D
:1038B0002BFE2D49B0FBF1F0401E2168C1F8DC0061
:1038C0002046FDF7DFFA206800F58050D0F80001AF
:1038D00020F4E01040F40021206800F58050C0F88A
:1038E0000011207D00F0030028B101206067E02076
:1038F000E066012096E7206800F58050D0F80801C6
:1039000047F6FE718843616940EA4101206800F58D
:103910008050C0F808112046FDF78BFA2046FDF7CD
:1039200058FA606800796168497940EA01202168A5
:10393000C1F800036068C07800066168897840EAD1
:1039400001406168497840EA0120616809780843CC
:103950002168C1F80403002060671020E06620673A
:1039600000205FE7F444025840420F00F0B50746DC
:1039700007F14403196953F821200025002400268B
:10398000986908B10020F0BD3DE06D1CD06800F0E2
:10399000805000B3641C012C00D10E4600BF491CAE
:1039A000042900D3091F00BF53F82120D06800F07C
:1039B000004058B9D06800F0804038B10120D8618B
:1039C00000BF491C042900D3091F00BF19615E61B3
:1039D0009C610120D7E7D06800F0005050B10E463E
:1039E000012400BF491C042900D3091F00BF53F85C
:1039F000212008E0641C00BF491C042900D3091FD2
:103A000000BF53F82120D06800F0004008B9042D11
:103A1000BBD384B319615E61314653F82120002580
:103A200022E0106910604FF08070D060506928B1BA
:103A300050699060D06840F00070D060D06840F06D
:103A40000040D060186A18B1D06840F08040D06063
:103A5000601EA84207D900BF491C042900D3091FD2
:103A600000BF53F821206D1CA542DAD3386800F559
:103A70008050C0F828210020986100BF83E7000033
:103A800030B587B0054600BF00BF8C48006840F0E5
:103A900001008A4908600846006800F001000190B2
:103AA00000BF00BF00BF00BF00BF0846006840F075
:103AB000010008600846006800F00100019000BFA6
:103AC00000BF00BF00BF00BF0846006840F0010013
:103AD00008600846006800F00100019000BF00BFC8
:103AE00000BF00BF00BF0846006840F00400086047
:103AF0000846006800F00400019000BF00BF00BF4E
:103B000000BF00BF0846006840F004000860084697
:103B1000006800F00400019000BF00BF00BF00BFBC
:103B200000BF0846006840F00400086008460068CE
:103B300000F00400019000BF00BF00BF00BF00BF45
:103B40000846006840F0020008600846006800F07F
:103B50000200019000BF00BF00BF00BF00BF0846C9
:103B6000006840F0400008600846006800F040002F
:103B7000019000BF00BF00BF00BF00BF0846006843
:103B800040F0400008600846006800F040000190E6
:103B900000BF00BF00BF00BF48480838006840F4BD
:103BA00000404649083908600846006800F40040B3
:103BB000019000BF00BF00BF0846006840F480309D
:103BC00008600846006800F48030019000BF00BF24
:103BD00000BF0846006840F40030086008460068EE
:103BE00000F40030019000BF00BF0220029003905B
:103BF00000200490032005900B20069002A9304875
:103C000000F0EAF90420029002A92D4800F0E4F93E
:103C10008020029002A92A4800F0DEF902200290DA
:103C200002A9284800F0D8F91020029002A92548DE
:103C300000F0D2F92020029002A9224800F0CCF92D
:103C40004FF40060029002A91F4800F0C5F94FF43C
:103C50000050029002A91D4800F0BEF94FF48040C8
:103C6000029002A9194800F0B7F910F013FA0220E7
:103C700007F0E4F804467CB100BF012107200FF0F3
:103C8000CEFE642005F0C0FD002107200FF0C7FE26
:103C9000642005F0B9FD0DE0002107200FF0BFFE04
:103CA000642005F0B1FD012107200FF0B8FE64206B
:103CB00005F0AAFD10F0F0F907B030BDE04402585D
:103CC0000000025800080258000402580018025868
:103CD0002DE9F04704460F46904699462068D0F8F3
:103CE000000200F0010010B10120BDE8F08720685B
:103CF000D0F8005225F0787040EA475525F4F810C6
:103D000040EA084545F00C0545F001052068C0F87B
:103D1000005200F07DFA064607E000F079FA801BB9
:103D2000B0F57A7F01D90120DFE72068D0F80002E2
:103D300000F001000028F0D12068D0F8040280B221
:103D4000C9F800000020D0E770B504460D460DB953
:103D5000012070BD206F102805D129462046FDF7AF
:103D6000A1FB0020F5E70120F3E7000070B506464F
:103D70003068D0F8004224F4706402F0C5FB0546B8
:103D80001348854205D31348854202D244F4007497
:103D90001AE01048854205D30F48854202D244F408
:103DA000407411E00C48854203D30C48854200D290
:103DB0000AE00A48854205D30948854202D244F404
:103DC000807401E044F480643068C0F8004270BD43
:103DD000002D3101C00E16020087930300E1F505A6
:103DE00080D1F0080146C86E10283FD12320C86654
:103DF0000868006840F002000A68106008680068FF
:103E000040F001000A6810600868D0F8000D40F02A
:103E100001000A68C2F8000D086800F58050D0F86B
:103E2000040140F00102086800F58050C0F8042148
:103E3000086800F58050D0F8080140F001020868D9
:103E400000F58050C0F80821086800F58050D0F8CF
:103E5000600140F48172086800F58050C0F860216C
:103E60001020C86622200867002070470120FCE768
:103E70002DE9F04104460F46154637B9606F40F012
:103E8000010060670120BDE8F081E06E102856D186
:103E9000002239462046FDF7E7F828B1606F40F070
:103EA000020060670120EEE704F11800A16A50F8F3
:103EB000218000BFA06A401CA062A06A042802D32F
:103EC000A06A001FA06200BF04F11800A16A50F8A8
:103ED0002110206800F58050C0F8201100F098F9FA
:103EE000064625E0206800F58050D0F8600100F417
:103EF000805068B1606F40F008006067206800F58E
:103F00008050D0F86001A067E020E0660120BAE7A9
:103F1000681C68B100F07CF9801BA84200D83DB94C
:103F2000606F40F004006067E020E0660120AAE7CF
:103F3000D8F80C0000F000400028D3D1A3E70120FE
:103F4000A1E700002DE9F04705460F469046994647
:103F50002868D0F8000200F0010010B10120BDE88F
:103F6000F0872868D0F8004224F0787040EA47547F
:103F700024F4F81040EA084424F00C00041D44F036
:103F800001041FFA89F00D4908600D48C0F800428D
:103F900000F03EF9064607E000F03AF9801BB0F564
:103FA0007A7F01D90120DAE72868D0F8000200F012
:103FB00001000028F0D100BFD1E7000004820240D8
:103FC000008002400348006840F001000149086099
:103FD0007047000020040058F8B502460B46002147
:103FE0006F4DD7E001278F401E6806EA0704002CBA
:103FF00072D01E7906F00306012E04D01E7906F059
:104000000306022E13D190684F000326BE40B04332
:104010004F00DE68BE4030439060506801268E40FD
:10402000B0431E79C6F300168E40304350601E79AF
:1040300006F00306032E09D0D0684F000326BE40C9
:10404000B0434F009E68BE403043D0601E7906F0FA
:104050000306022E13D1CF0802F1200656F82700DE
:104060004E07F70E0F26BE40B0434F07FF0E1E69E6
:10407000BE403043CF0802F1200646F82700106802
:104080004F000326BE40B0431E7906F003064F00E2
:10409000BE40304310605E6806F44036002E78D093
:1040A00000BF404E366846F002063E4F3E603E4638
:1040B000366806F00206009600BF00BF3A4E8F0831
:1040C00056F827008E07370F0F26BE40B043374EF5
:1040D000B24202D100262EE05BE0354EB24201D161
:1040E000012628E0334EB24201D1022623E0324EAF
:1040F000B24201D103261EE0304EB24201D1042665
:1041000019E02F4EB24201D1052614E02D4EB242E5
:1041100001D106260FE02C4EB24201D107260AE05B
:104120002A4EB24201D1082605E0294EB24201D101
:10413000092600E00A268F073F0FBE4030431A4E83
:104140008F0846F827004FF0B0463068A0435E68FD
:1041500006F4801606B120434FF0B0463060706818
:10416000A0435E6806F4001606B120434FF0B04647
:1041700070606868A0435E6806F4003606B12043AC
:1041800068602868A0435E6806F4803606B1204364
:104190002860491C1E68CE40002E7FF423AFF8BD76
:1041A00080000058F44402580804005800000258E7
:1041B0000004025800080258000C0258001002586F
:1041C0000014025800180258001C0258002002581F
:1041D00000240258024613690B400BB1012000E095
:1041E0000020704710B5426921EA020302EA010487
:1041F00043EA0443836110BD0AB1816101E00B040D
:104200008361704701480068000C70470010005C33
:10421000014800687047000014000024034800684B
:1042200003490978084401490860704714000024D4
:104230001C00002410B5052000F002FB02F0AEF9CE
:1042400010490968C1F303210F4A515C01F01F01B5
:1042500020FA01F40B48006800F00F001146085CDA
:1042600000F01F0024FA00F00849086008480460C4
:104270000F2000F00FF808B1012010BD00F08EFAF9
:104280000020FAE718440258F8AA010804000024A4
:104290000000002470B504461148007808B90120D8
:1042A00070BD0F4800784FF47A71B1FBF0F00D4902
:1042B0000968B1FBF0F5284603F024F808B10120A5
:1042C000EEE7102C07D200222146501E00F07BFAA8
:1042D0000548046001E00120E2E70020E0E700007B
:1042E0001C000024000000241800002470B50446BF
:1042F0000E46154600BF94F8A000012801D1022007
:1043000070BD012084F8A00000BF022084F8A10045
:1043100005EB850101EBC50204F1380101EB8200D8
:1043200034223146FCF722F82A463146204603F073
:10433000AFFB01202168486284F8A10000BF002083
:1043400084F8A00000BF00BFDAE7000070B50446A3
:104350000CB9012070BD94F8A10028B9002084F8A0
:10436000A000204600F07EF8022084F8A10020681A
:10437000806920F0704021688861D4E90101084318
:10438000E168084321690843216889690843216875
:104390008861206880683249084021688860A08A66
:1043A000050420688068A169294308432168886062
:1043B0002068C0682A4908402168C860A08B0504AD
:1043C0002068C068216A294308432168C8602068C2
:1043D00000692349084021680861A08C0504206811
:1043E0000069A16A2943084321680861206840697F
:1043F0001B49084021684861A08D05042068406978
:10440000216B294308432168486194F8350005026F
:1044100094F8360006042068C06A00F07F402168E6
:10442000C86246EA050094F8341008432168C96A56
:1044300008432168C8622068406B40F0060021688C
:1044400048632068806940F001002168886100208D
:10445000C4F8A400012084F8A10000207AE700003D
:1044600000F800F010B586B0044600BF5D48006853
:1044700040F008005B4908600846006800F008004A
:10448000009000BF00BF00BF56481038006840F0E1
:1044900010005449103908600846006800F0100008
:1044A000009000BF00BF00BF00BF4E48001F006863
:1044B00040F002004B49091F08600846006800F000
:1044C0000200009000BF00BF00BF00BF00BF084651
:1044D000006840F0200008600846006800F02000F6
:1044E000009000BF00BF00BF00BF00BF08460068CB
:1044F00040F4807008600846006800F48070009006
:1045000000BF00BF00BF00BF00BF0846006840F406
:10451000807008600846006800F48070009000BF5A
:1045200000BF00BF00BF00BF0846006840F0400069
:1045300008600846006800F04000009000BF00BF1F
:1045400000BF00BF0846006840F0800008600846D1
:10455000006800F08000009000BF00BF20200190A4
:104560000120029003900320049001A91E48FFF748
:1045700033FD4FF4806001900220029000200390F0
:10458000032004900E20059001A91848FFF724FD90
:104590004FF40070019001A91548FFF71DFD4FF47D
:1045A0008060019001A91248FFF716FD802001905C
:1045B00001A91048FFF710FD4FF40460019001A914
:1045C0000C48FFF709FD4FF47E40019001A90A480D
:1045D000FFF702FDF720019001A90548FFF7FCFC59
:1045E00006B010BDE44402580004025800140258FA
:1045F0000020025800180258001C02582DE9F04112
:1046000004460E461746984600BF94F8A0000128BD
:1046100002D10220BDE8F081012084F8A00000BF93
:10462000022084F8A10008EB880000EBC80104F127
:10463000380000EB81052E60A86A30446860AF60E6
:10464000E86A3844E86042462946204603F020FAEA
:1046500001202168486284F8A10000BF002084F88E
:10466000A00000BF00BFD5E72DE9F04104460E468B
:104670001746984600BF94F8A000012802D10220F6
:10468000BDE8F081012084F8A00000BF022084F87A
:10469000A10008EB880000EBC80104F1380000EB32
:1046A0008105286830446860A8683844E860AE62D4
:1046B000EF6242462946204603F0EAF901202168CC
:1046C000486284F8A10000BF002084F8A00000BF69
:1046D00000BFD5E74178154A11600178F9B1121D84
:1046E00041681160017B0907C27A41EA0261827A5E
:1046F00041EAC241427B41EA8241827B41EA424136
:10470000C27B41EA0241427A41EA0221027A41EA4D
:10471000420102781143054A0832116005E0002188
:10472000024A121D1160121D1160704798ED00E0E1
:1047300000BF00BF00BFBFF35F8F00BF00BF00BF5F
:104740000548006820F480300349086000200249D1
:10475000703108607047000024ED00E040F0010176
:104760000D4A11600C497039096841F480310A4AD8
:10477000703A116000BF00BF00BFBFF34F8F00BF92
:1047800000BF00BF00BF00BF00BFBFF36F8F00BFFF
:1047900000BF00BF7047000094ED00E07047014685
:1047A000084600280DDB00BF00BF00F01F030122F8
:1047B0009A4043099B0003F1E023C3F8002100BFA6
:1047C00000BF00BF70472DE9F05F80460D461646DA
:1047D00004F056FC074639462A46334601F00700E6
:1047E000C0F1070ABAF1040F02D94FF0040A01E040
:1047F000C0F1070AD14600F1040ABAF1070F02D24C
:104800004FF0000A01E0A0F1030AD4464FF0010A7C
:104810000AFA09FAAAF1010A0AEA020A0AFA0CFAE1
:104820004FF0010B0BFA0CFBABF1010B0BEA030B86
:104830004AEA0B042146404604F02AFCBDE8F09FFA
:1048400000BF00F00702064B19684FF6FF0319403E
:10485000044B0B4343EA0221014B196000BF704730
:104860000CED00E00000FA050348006840F080709D
:1048700001490860704700000C48025810B501F06B
:1048800043FE05490968C1F30211044A515C01F075
:104890001F01C84010BD000020440258F8AA0108BA
:1048A00070B50146844D2D6805F00303824D2D68D7
:1048B000C5F30510804D2D1D2D6805F001047E4DBA
:1048C0000C352D68C5F3CC0515FB04F501EE105A27
:1048D000B8EE411AF0EE410A00286FD023B1012B47
:1048E0004ED0022B6BD16BE0734D283D2D68C5F384
:1048F00040153DB3704D283D2D68C5F3C1066F4D81
:1049000025FA06F201EE102AF8EE411A01EE100A1D
:10491000B8EE411A81EE812A9FED691AC0EE811A24
:10492000654D08352D68C5F3080501EE105AB8EE3F
:10493000411A31EE811AF7EE001A31EE211A22EEF9
:10494000010A1CE001EE100AB8EE411ADFED5D1A13
:1049500081EE812A9FED5A1AC0EE811A564D083514
:104960002D68C5F3080501EE105AB8EE411A31EE74
:10497000811AF7EE001A31EE211A22EE010A5BE0ED
:1049800001EE100AB8EE411ADFED4F1A81EE812ACE
:104990009FED4B1AC0EE811A474D08352D68C5F3BF
:1049A000080501EE105AB8EE411A31EE811AF7EE01
:1049B000001A31EE211A22EE010A3DE077E01DE0F7
:1049C00001EE100AB8EE411A9FED402AC2EE011A1C
:1049D0009FED3B1A80EE812A374D08352D68C5F3CF
:1049E000080501EE105AB8EE411A32EE011AB7EE80
:1049F000002A31EE021A21EE810A1DE001EE100AB2
:104A0000B8EE411ADFED2F1A81EE812A9FED2C1AA4
:104A1000C0EE811A284D08352D68C5F3080501EE52
:104A2000105AB8EE411A31EE811AF7EE001A31EE43
:104A3000211A22EE010A00BF00BF1F4D08352D6864
:104A4000C5F3462501EE105AB8EE411AF7EE001AEA
:104A500031EE211AC0EE011ABCEEE11A81ED001A06
:104A6000154D08352D68C5F3064501EE105AB8EE10
:104A7000411AF7EE001A31EE211AC0EE011ABCEE0F
:104A8000E11A81ED011A0C4D08352D68C5F3066554
:104A900001EE105AB8EE411AF7EE001A31EE211A63
:104AA000C0EE011ABCEEE11A81ED021A03E0002506
:104AB0000D604D608D6070BD284402580090D00399
:104AC000000000460024744C0024744A20BCBE4BF5
:104AD00070B50146844D2D6805F00303824D2D68A5
:104AE000C5F30530804D2D1D2D68C5F300147E4D96
:104AF00014352D68C5F3CC0515FB04F501EE105AED
:104B0000B8EE411AF0EE410A00286FD023B1012B14
:104B10004ED0022B6BD16BE0734D283D2D68C5F351
:104B200040153DB3704D283D2D68C5F3C1066F4D4E
:104B300025FA06F201EE102AF8EE411A01EE100AEB
:104B4000B8EE411A81EE812A9FED691AC0EE811AF2
:104B5000654D10352D68C5F3080501EE105AB8EE05
:104B6000411A31EE811AF7EE001A31EE211A22EEC7
:104B7000010A1CE001EE100AB8EE411ADFED5D1AE1
:104B800081EE812A9FED5A1AC0EE811A564D1035DA
:104B90002D68C5F3080501EE105AB8EE411A31EE42
:104BA000811AF7EE001A31EE211A22EE010A5BE0BB
:104BB00001EE100AB8EE411ADFED4F1A81EE812A9C
:104BC0009FED4B1AC0EE811A474D10352D68C5F385
:104BD000080501EE105AB8EE411A31EE811AF7EECF
:104BE000001A31EE211A22EE010A3DE077E01DE0C5
:104BF00001EE100AB8EE411A9FED402AC2EE011AEA
:104C00009FED3B1A80EE812A374D10352D68C5F394
:104C1000080501EE105AB8EE411A32EE011AB7EE4D
:104C2000002A31EE021A21EE810A1DE001EE100A7F
:104C3000B8EE411ADFED301A81EE812A9FED2C1A71
:104C4000C0EE811A284D10352D68C5F3080501EE18
:104C5000105AB8EE411A31EE811AF7EE001A31EE11
:104C6000211A22EE010A00BF00BF1F4D10352D682A
:104C7000C5F3462501EE105AB8EE411AF7EE001AB8
:104C800031EE211AC0EE011ABCEEE11A81ED001AD4
:104C9000154D10352D68C5F3064501EE105AB8EED6
:104CA000411AF7EE001A31EE211AC0EE011ABCEEDD
:104CB000E11A81ED011A0C4D10352D68C5F306651A
:104CC00001EE105AB8EE411AF7EE001A31EE211A31
:104CD000C0EE011ABCEEE11A81ED021A03E00025D4
:104CE0000D604D608D6070BD284402580090D00367
:104CF000000000460024744C0024744A20BCBE4BC3
:104D000070B50146844D2D6805F00303824D2D6872
:104D1000C5F30550804D2D1D2D68C5F300247E4D33
:104D20001C352D68C5F3CC0515FB04F501EE105AB2
:104D3000B8EE411AF0EE410A00286FD023B1012BE2
:104D40004ED0022B6BD16BE0734D283D2D68C5F31F
:104D500040153DB3704D283D2D68C5F3C1066F4D1C
:104D600025FA06F201EE102AF8EE411A01EE100AB9
:104D7000B8EE411A81EE812A9FED691AC0EE811AC0
:104D8000654D18352D68C5F3080501EE105AB8EECB
:104D9000411A31EE811AF7EE001A31EE211A22EE95
:104DA000010A1CE001EE100AB8EE411ADFED5D1AAF
:104DB00081EE812A9FED5A1AC0EE811A564D1835A0
:104DC0002D68C5F3080501EE105AB8EE411A31EE10
:104DD000811AF7EE001A31EE211A22EE010A5BE089
:104DE00001EE100AB8EE411ADFED4F1A81EE812A6A
:104DF0009FED4B1AC0EE811A474D18352D68C5F34B
:104E0000080501EE105AB8EE411A31EE811AF7EE9C
:104E1000001A31EE211A22EE010A3DE077E01DE092
:104E200001EE100AB8EE411A9FED402AC2EE011AB7
:104E30009FED3B1A80EE812A374D18352D68C5F35A
:104E4000080501EE105AB8EE411A32EE011AB7EE1B
:104E5000002A31EE021A21EE810A1DE001EE100A4D
:104E6000B8EE411ADFED301A81EE812A9FED2C1A3F
:104E7000C0EE811A284D18352D68C5F3080501EEDE
:104E8000105AB8EE411A31EE811AF7EE001A31EEDF
:104E9000211A22EE010A00BF00BF1F4D18352D68F0
:104EA000C5F3462501EE105AB8EE411AF7EE001A86
:104EB00031EE211AC0EE011ABCEEE11A81ED001AA2
:104EC000154D18352D68C5F3064501EE105AB8EE9C
:104ED000411AF7EE001A31EE211AC0EE011ABCEEAB
:104EE000E11A81ED011A0C4D18352D68C5F30665E0
:104EF00001EE105AB8EE411AF7EE001A31EE211AFF
:104F0000C0EE011ABCEEE11A81ED021A03E00025A1
:104F10000D604D608D6070BD284402580090D00334
:104F2000000000460024744C0024744A20BCBE4B90
:104F30002DE9F0418AB00646B6F5807F70D1FE4873
:104F4000006800F00708B8F1050F65D2DFE808F047
:104F5000031221623000F8485038006800F00070F9
:104F6000B0F1007F04D107A8FFF79AFC089C00E08D
:104F7000002453E0F0485038006800F00060B0F1C1
:104F8000006F04D104A8FFF7A3FD049C00E00024F7
:104F900044E0E9485038006800F00050B0F1005F8C
:104FA00004D101A8FFF7ACFE019C00E0002435E02D
:104FB000E148001F006800F04055DF4850380068A5
:104FC00000F00400042809D145B9DB4850380068D6
:104FD000C0F3C101D94820FA01F41AE0D64850388C
:104FE000006800F48070B0F5807F04D1B5F1805F77
:104FF00001D1D34C0DE0D0485038006800F40030A7
:10500000B0F5003F04D1B5F1005F01D1CD4C00E017
:10501000002403E0CC4C01E0002400BF24E3FFE7C0
:10502000B6F5007F7AD1C448006800F4E078B8F1A2
:10503000800F2CD006DCB8F1000F0AD0B8F1400F79
:1050400069D115E0B8F1C00F63D0B8F5807F62D1A7
:105050002CE0B9485038006800F00070B0F1007FD3
:1050600004D107A8FFF71CFC089C00E0002454E0D2
:10507000B1485038006800F00060B0F1006F04D112
:1050800004A8FFF725FD049C00E0002445E0AA48A1
:105090005038006800F00050B0F1005F04D101A862
:1050A000FFF72EFE019C00E0002436E0A248001F1E
:1050B000006800F04055A0485038006800F0040037
:1050C000042809D145B99C4850380068C0F3C10193
:1050D0009A4820FA01F41BE097485038006800F421
:1050E0008070B0F5807F04D1B5F1805F01D1944C20
:1050F0000EE091485038006800F40030B0F5003FF1
:1051000005D1B5F1005F02D18E4C01E006E000242C
:1051100003E08D4C01E0002400BFA5E2B6F5806FEE
:105120007BD185480830006800F46008B8F5800F2E
:105130002CD006DCB8F1000F0AD0B8F5001F69D1F9
:1051400015E0B8F5C00F63D0B8F5000F62D12CE0C0
:1051500079485038006800F00070B0F1007F04D149
:1051600007A8FFF79DFB089C00E0002454E072486C
:105170005038006800F00060B0F1006F04D104A85E
:10518000FFF7A6FC049C00E0002445E06A48503884
:10519000006800F00050B0F1005F04D101A8FFF7F3
:1051A000AFFD019C00E0002436E06348001F00686A
:1051B00000F0405560485038006800F004000428B2
:1051C00009D145B95C4850380068C0F3C1015B485B
:1051D00020FA01F41BE058485038006800F4807051
:1051E000B0F5807F04D1B5F1805F01D1544C0EE061
:1051F00051485038006800F40030B0F5003F05D148
:10520000B5F1005F02D14F4C01E006E0002403E05D
:105210004D4C01E0002400BF26E2B6F5006F7BD1C3
:1052200045480830006800F0E068B8F1007F2CD0F5
:1052300006DCB8F1000F0AD0B8F1807F69D115E023
:10524000B8F1407F63D0B8F1806F62D12CE03A486A
:105250005038006800F00070B0F1007F04D107A85A
:10526000FFF71EFB089C00E0002454E03248503851
:10527000006800F00060B0F1006F04D104A8FFF7EF
:1052800027FC049C00E0002445E02B4850380068CF
:1052900000F00050B0F1005F04D101A8FFF730FD2D
:1052A000019C00E0002436E02348001F006800F065
:1052B000405521485038006800F00400042809D106
:1052C00045B91D4850380068C0F3C1011B4820FA99
:1052D00001F41BE018485038006800F48070B0F505
:1052E000807F04D1B5F1805F01D1154C0EE01248EA
:1052F0005038006800F40030B0F5003F05D1B5F13A
:10530000005F02D10F4C01E006E0002403E00E4CE8
:1053100001E0002400BFA7E1B6F5805F7CD106481C
:10532000006800F4E047B7F5005F32D00EDCA7B1AB
:10533000B7F5805F6DD11EE0504402580090D00355
:1053400000093D0040787D010080BB00B7F5405F5B
:105350005DD0B7F5804F5CD129E0C548006800F00A
:105360000070B0F1007F04D107A8FFF799FA089CFC
:1053700000E000244FE0BE48006800F00060B0F19B
:10538000006F04D104A8FFF7A3FB049C00E00024F5
:1053900041E0B748006800F00050B0F1005F04D170
:1053A00001A8FFF7ADFC019C00E0002433E0B04809
:1053B0004C30006800F04055AD48006800F0040033
:1053C000042808D13DB9AA480068C0F3C101A94822
:1053D00020FA01F41AE0A648006800F48070B0F5E5
:1053E000807F04D1B5F1805F01D1A34C0EE0A048CD
:1053F000006800F40030B0F5003F06D1B5F1005F61
:1054000003D19E4C02E007E003E0002403E09C4C43
:1054100001E0002400BF27E1B6F5002F59D19448E0
:105420005830006800F4403737B1B7F5803F11D0ED
:10543000B7F5003F4AD11BE08D48006800F00060DE
:10544000B0F1006F04D104A8FFF742FB049C00E018
:1054500000243DE08648006800F00050B0F1005F95
:1054600004D101A8FFF74CFC039C00E000242FE0CE
:105470007F484C30006800F040557D48006800F0DF
:105480000400042808D13DB979480068C0F3C1017F
:10549000784820FA01F418E07548006800F480703C
:1054A000B0F5807F04D1B5F1805F01D1724C0CE082
:1054B0006F48006800F40030B0F5003F04D1B5F14A
:1054C000005F01D16D4C00E0002401E0002400BF2A
:1054D000CAE0B6F5803F28D165484C30006800F43A
:1054E00080371FB1B7F5803F1CD10DE060480068E0
:1054F00000F00070B0F1007F04D107A8FFF7D0F9E9
:10550000089C00E000240FE05948006800F00060AB
:10551000B0F1006F04D104A8FFF7DAFA069C00E0AE
:10552000002401E0002400BF9EE0B6F5804F60D16A
:105530004F485830006800F0E047B7F1405F2FD087
:1055400007DC6FB1B7F1805F0ED0B7F1005F4DD1CE
:1055500018E0B7F1804F33D0B7F1A04F46D13AE011
:10556000FFF78CF9044643E04148006800F0006012
:10557000B0F1006F04D104A8FFF7AAFA059C00E07F
:10558000002435E03A48006800F00050B0F1005FB8
:1055900004D101A8FFF7B4FB029C00E0002427E03F
:1055A0003348006800F00400042807D13048006840
:1055B000C0F3C1012F4820FA01F400E0002417E0F5
:1055C0002B48006800F48070B0F5807F01D12A4C30
:1055D00000E000240CE02648006800F40030B0F53C
:1055E000003F01D1254C00E0002401E0002400BF71
:1055F0003AE0B6F5004F36D11D485030006800F053
:10560000405737B1B7F1805F0ED0B7F1005F27D1B7
:1056100018E01748006800F40030B0F5003F01D1F1
:10562000164C00E000241DE01148006800F00070F6
:10563000B0F1007F04D107A8FFF732F9089C00E021
:1056400000240FE00A48006800F00060B0F1006F2D
:1056500004D104A8FFF73CFA059C00E0002401E017
:10566000002400BF00E0002420460AB0BDE8F0811D
:10567000004402580090D00300093D0040787D01AD
:105680000080BB002DE9F04104460025A8462068B3
:1056900000F00060B0F1006F30D1606E48B1B0F53D
:1056A000801F0DD0B0F5001F10D0B0F5401F15D1F0
:1056B00013E0F948006840F40030F74908600FE053
:1056C0000221201D02F01CFB054609E0022104F125
:1056D000240002F0C7FB054602E001E0012500BFFF
:1056E00000BF55B9EC482430006820F44010616ECA
:1056F0000843E9492431086000E0A846208800F406
:105700008070B0F5807F2DD1606D05281AD2DFE85A
:1057100000F0030A10171800DF48006840F400305A
:10572000DD49086010E00021201D02F0E9FA05467D
:105730000AE0002104F1240002F094FB054603E096
:1057400002E001E0012500BF00BF55B9D248243076
:10575000006820F00700616D0843CF4924310860DC
:1057600000E0A846208800F40070B0F5007F33D137
:10577000A06D802817D003DC40B140281CD10CE07C
:10578000C02817D0B0F5807F16D114E0C248006859
:1057900040F40030C049086010E00021201D02F0F4
:1057A000AFFA05460AE0002104F1240002F05AFB9A
:1057B000054603E002E001E0012500BF00BF55B946
:1057C000B5482430006820F4E070A16D0843B24968
:1057D0002431086000E0A846208800F48060B0F51D
:1057E000806F38D1D4F8A400B0F5800F19D004DC54
:1057F00050B1B0F5001F1DD10DE0B0F5C00F17D0AE
:10580000B0F5000F16D114E0A348006840F4003052
:10581000A149086010E00021201D02F071FA054640
:105820000AE0002104F1240002F01CFB054603E01D
:1058300002E001E0012500BF00BF5DB996482C30B1
:10584000006820F46000D4F8A410084392492C3179
:10585000086000E0A846208800F40060B0F5006F02
:1058600038D1D4F8A800B0F1007F19D004DC50B1D1
:10587000B0F1807F1DD10DE0B0F1407F17D0B0F1C5
:10588000806F16D114E08448006840F400308249EB
:10589000086010E00021201D02F032FA05460AE0FF
:1058A000002104F1240002F0DDFA054603E002E0E5
:1058B00001E0012500BF00BF5DB977482C300068CA
:1058C00020F0E060D4F8A810084373492C31086038
:1058D00000E0A846206800F00070B0F1007F27D1FA
:1058E000A06CA0B1102804D0202809D030280FD1F6
:1058F0000CE06948006840F400306749086009E03E
:105900000221201D02F0FCF9054603E002E001E05F
:10591000012500BF00BF55B95F482030006820F066
:105920003000A16C08435C492031086000E0A846C3
:10593000208800F48050B0F5805F36D1E06DB0F57E
:10594000005F19D004DC50B1B0F5805F1DD10DE0CF
:10595000B0F5405F17D0B0F5804F16D114E04E4837
:10596000006840F400304C49086010E00021201D20
:1059700002F0C6F905460AE0002104F1240002F015
:1059800071FA054603E002E001E0012500BF00BF17
:1059900055B941482430006820F4E040E16D0843E7
:1059A0003D492431086000E0A846208800F40050FA
:1059B000B0F5005F34D1206EB0F5403F1DD007DC5C
:1059C00068B1B0F5803F0BD0B0F5003F18D10DE0C5
:1059D000B0F5802F12D0B0F5A02F11D10FE011E05B
:1059E0000121201D02F08CF905460BE0012104F194
:1059F000240002F037FA054604E003E002E001E08B
:105A0000012500BF00BF55B923482430006820F4A9
:105A1000E020216E084320492431086000E0A846B8
:105A2000208800F48040B0F5804F38D1D4F8AC0025
:105A3000B0F1405F1DD007DC68B1B0F1805F0BD0E2
:105A4000B0F1005F18D10DE0B0F1804F12D0B0F18D
:105A5000A04F11D10FE011E00121201D02F050F9FB
:105A600005460BE0012104F1240002F0FBF9054694
:105A700004E003E002E001E0012500BF00BF6DB9D2
:105A800005482C30006820F0E040D4F8AC10084302
:105A900001492C31086002E02C440258A8462088B5
:105AA00000F40040B0F5004F26D1E06E98B1B0F19F
:105AB000805F03D0B0F1005F0ED106E0F9480068C6
:105AC00040F40030F749086008E00121201D02F091
:105AD00017F9054602E001E0012500BF00BF55B9F6
